{
  "_format": "hh-sol-artifact-1",
  "contractName": "WavePortal",
  "sourceName": "contracts/wavePortal.sol",
  "abi": [
    {
      "inputs": [],
      "stateMutability": "payable",
      "type": "constructor"
    },
    {
      "anonymous": false,
      "inputs": [
        {
          "indexed": true,
          "internalType": "address",
          "name": "from",
          "type": "address"
        },
        {
          "indexed": false,
          "internalType": "uint256",
          "name": "timestamp",
          "type": "uint256"
        },
        {
          "indexed": false,
          "internalType": "string",
          "name": "message",
          "type": "string"
        }
      ],
      "name": "NewWave",
      "type": "event"
    },
    {
      "inputs": [],
      "name": "getAllWaves",
      "outputs": [
        {
          "components": [
            {
              "internalType": "address",
              "name": "waver",
              "type": "address"
            },
            {
              "internalType": "string",
              "name": "message",
              "type": "string"
            },
            {
              "internalType": "uint256",
              "name": "timestamp",
              "type": "uint256"
            }
          ],
          "internalType": "struct WavePortal.Wave[]",
          "name": "",
          "type": "tuple[]"
        }
      ],
      "stateMutability": "view",
      "type": "function"
    },
    {
      "inputs": [
        {
          "internalType": "address",
          "name": "",
          "type": "address"
        }
      ],
      "name": "lastWavedAt",
      "outputs": [
        {
          "internalType": "uint256",
          "name": "",
          "type": "uint256"
        }
      ],
      "stateMutability": "view",
      "type": "function"
    },
    {
      "inputs": [
        {
          "internalType": "string",
          "name": "_message",
          "type": "string"
        }
      ],
      "name": "wave",
      "outputs": [],
      "stateMutability": "nonpayable",
      "type": "function"
    }
  ],
  "bytecode": "0x6080604052606444426200001491906200002c565b62000020919062000093565b60018190555062000129565b6000620000398262000089565b9150620000468362000089565b9250827fffffffffffffffffffffffffffffffffffffffffffffffffffffffffffffffff038211156200007e576200007d620000cb565b5b828201905092915050565b6000819050919050565b6000620000a08262000089565b9150620000ad8362000089565b925082620000c057620000bf620000fa565b5b828206905092915050565b7f4e487b7100000000000000000000000000000000000000000000000000000000600052601160045260246000fd5b7f4e487b7100000000000000000000000000000000000000000000000000000000600052601260045260246000fd5b610fd180620001396000396000f3fe608060405234801561001057600080fd5b50600436106100415760003560e01c8063449d46c014610046578063a42a466314610062578063bd43a90814610092575b600080fd5b610060600480360381019061005b919061087e565b6100b0565b005b61007c60048036038101906100779190610855565b61046b565b6040516100899190610c63565b60405180910390f35b61009a610483565b6040516100a79190610b81565b60405180910390f35b42601e600360003373ffffffffffffffffffffffffffffffffffffffff1673ffffffffffffffffffffffffffffffffffffffff168152602001908152602001600020546100fd9190610d80565b1061013d576040517f08c379a000000000000000000000000000000000000000000000000000000000815260040161013490610c43565b60405180910390fd5b42600360003373ffffffffffffffffffffffffffffffffffffffff1673ffffffffffffffffffffffffffffffffffffffff1681526020019081526020016000208190555060016000808282546101939190610d80565b92505081905550600260405180606001604052803373ffffffffffffffffffffffffffffffffffffffff16815260200183815260200142815250908060018154018082558091505060019003906000526020600020906003020160009091909190915060008201518160000160006101000a81548173ffffffffffffffffffffffffffffffffffffffff021916908373ffffffffffffffffffffffffffffffffffffffff1602179055506020820151816001019080519060200190610259929190610735565b50604082015181600201555050606460015442446102779190610d80565b6102819190610d80565b61028b9190610e86565b6001819055506102d26040518060400160405280601681526020017f52616e646f6d20232067656e6572617465643a202564000000000000000000008152506001546105d4565b6032600154116104185761031b6040518060400160405280600781526020017f257320776f6e210000000000000000000000000000000000000000000000000081525033610670565b6000655af3107a4000905047811115610369576040517f08c379a000000000000000000000000000000000000000000000000000000000815260040161036090610c03565b60405180910390fd5b60003373ffffffffffffffffffffffffffffffffffffffff168260405161038f90610b6c565b60006040518083038185875af1925050503d80600081146103cc576040519150601f19603f3d011682016040523d82523d6000602084013e6103d1565b606091505b5050905080610415576040517f08c379a000000000000000000000000000000000000000000000000000000000815260040161040c90610c23565b60405180910390fd5b50505b3373ffffffffffffffffffffffffffffffffffffffff167f5f7e16dc676677766a70e9c5628aa6c54ddb8b6e5188e2ae1e1f17f1ffbea7164283604051610460929190610c7e565b60405180910390a250565b60036020528060005260406000206000915090505481565b60606002805480602002602001604051908101604052809291908181526020016000905b828210156105cb57838290600052602060002090600302016040518060600160405290816000820160009054906101000a900473ffffffffffffffffffffffffffffffffffffffff1673ffffffffffffffffffffffffffffffffffffffff1673ffffffffffffffffffffffffffffffffffffffff16815260200160018201805461053090610e54565b80601f016020809104026020016040519081016040528092919081815260200182805461055c90610e54565b80156105a95780601f1061057e576101008083540402835291602001916105a9565b820191906000526020600020905b81548152906001019060200180831161058c57829003601f168201915b50505050508152602001600282015481525050815260200190600101906104a7565b50505050905090565b61066c82826040516024016105ea929190610bd3565b6040516020818303038152906040527f9710a9d0000000000000000000000000000000000000000000000000000000007bffffffffffffffffffffffffffffffffffffffffffffffffffffffff19166020820180517bffffffffffffffffffffffffffffffffffffffffffffffffffffffff838183161783525050505061070c565b5050565b6107088282604051602401610686929190610ba3565b6040516020818303038152906040527f319af333000000000000000000000000000000000000000000000000000000007bffffffffffffffffffffffffffffffffffffffffffffffffffffffff19166020820180517bffffffffffffffffffffffffffffffffffffffffffffffffffffffff838183161783525050505061070c565b5050565b60008151905060006a636f6e736f6c652e6c6f679050602083016000808483855afa5050505050565b82805461074190610e54565b90600052602060002090601f01602090048101928261076357600085556107aa565b82601f1061077c57805160ff19168380011785556107aa565b828001600101855582156107aa579182015b828111156107a957825182559160200191906001019061078e565b5b5090506107b791906107bb565b5090565b5b808211156107d45760008160009055506001016107bc565b5090565b60006107eb6107e684610cdf565b610cae565b90508281526020810184848401111561080357600080fd5b61080e848285610e12565b509392505050565b60008135905061082581610f84565b92915050565b600082601f83011261083c57600080fd5b813561084c8482602086016107d8565b91505092915050565b60006020828403121561086757600080fd5b600061087584828501610816565b91505092915050565b60006020828403121561089057600080fd5b600082013567ffffffffffffffff8111156108aa57600080fd5b6108b68482850161082b565b91505092915050565b60006108cb8383610afe565b905092915050565b6108dc81610dd6565b82525050565b6108eb81610dd6565b82525050565b60006108fc82610d1f565b6109068185610d42565b93508360208202850161091885610d0f565b8060005b85811015610954578484038952815161093585826108bf565b945061094083610d35565b925060208a0199505060018101905061091c565b50829750879550505050505092915050565b600061097182610d2a565b61097b8185610d5e565b935061098b818560208601610e21565b61099481610f73565b840191505092915050565b60006109aa82610d2a565b6109b48185610d6f565b93506109c4818560208601610e21565b6109cd81610f73565b840191505092915050565b60006109e5603483610d6f565b91507f547279696e6720746f207769746864726177206d6f7265206d6f6e657920746860008301527f616e2074686520636f6e7472616374206861732e0000000000000000000000006020830152604082019050919050565b6000610a4b602783610d6f565b91507f4661696c656420746f207769746864726177206d6f6e65792066726f6d20636f60008301527f6e74726163742e000000000000000000000000000000000000000000000000006020830152604082019050919050565b6000610ab1600883610d6f565b91507f57616974203330730000000000000000000000000000000000000000000000006000830152602082019050919050565b6000610af1600083610d53565b9150600082019050919050565b6000606083016000830151610b1660008601826108d3565b5060208301518482036020860152610b2e8282610966565b9150506040830151610b436040860182610b4e565b508091505092915050565b610b5781610e08565b82525050565b610b6681610e08565b82525050565b6000610b7782610ae4565b9150819050919050565b60006020820190508181036000830152610b9b81846108f1565b905092915050565b60006040820190508181036000830152610bbd818561099f565b9050610bcc60208301846108e2565b9392505050565b60006040820190508181036000830152610bed818561099f565b9050610bfc6020830184610b5d565b9392505050565b60006020820190508181036000830152610c1c816109d8565b9050919050565b60006020820190508181036000830152610c3c81610a3e565b9050919050565b60006020820190508181036000830152610c5c81610aa4565b9050919050565b6000602082019050610c786000830184610b5d565b92915050565b6000604082019050610c936000830185610b5d565b8181036020830152610ca5818461099f565b90509392505050565b6000604051905081810181811067ffffffffffffffff82111715610cd557610cd4610f44565b5b8060405250919050565b600067ffffffffffffffff821115610cfa57610cf9610f44565b5b601f19601f8301169050602081019050919050565b6000819050602082019050919050565b600081519050919050565b600081519050919050565b6000602082019050919050565b600082825260208201905092915050565b600081905092915050565b600082825260208201905092915050565b600082825260208201905092915050565b6000610d8b82610e08565b9150610d9683610e08565b9250827fffffffffffffffffffffffffffffffffffffffffffffffffffffffffffffffff03821115610dcb57610dca610eb7565b5b828201905092915050565b6000610de182610de8565b9050919050565b600073ffffffffffffffffffffffffffffffffffffffff82169050919050565b6000819050919050565b82818337600083830152505050565b60005b83811015610e3f578082015181840152602081019050610e24565b83811115610e4e576000848401525b50505050565b60006002820490506001821680610e6c57607f821691505b60208210811415610e8057610e7f610f15565b5b50919050565b6000610e9182610e08565b9150610e9c83610e08565b925082610eac57610eab610ee6565b5b828206905092915050565b7f4e487b7100000000000000000000000000000000000000000000000000000000600052601160045260246000fd5b7f4e487b7100000000000000000000000000000000000000000000000000000000600052601260045260246000fd5b7f4e487b7100000000000000000000000000000000000000000000000000000000600052602260045260246000fd5b7f4e487b7100000000000000000000000000000000000000000000000000000000600052604160045260246000fd5b6000601f19601f8301169050919050565b610f8d81610dd6565b8114610f9857600080fd5b5056fea26469706673582212205cd095aebb95a7fd4158a74641c08b0da82d56d16f3bd39739186c920f0622cc64736f6c63430008000033",
  "linkReferences": {},
  "deployedLinkReferences": {}
}